{
  "_format": "hh-sol-artifact-1",
  "contractName": "Dappcom",
  "sourceName": "contracts/Dappcom.sol",
  "abi": [
    {
      "inputs": [],
      "stateMutability": "nonpayable",
      "type": "constructor"
    },
    {
      "anonymous": false,
      "inputs": [
        {
          "indexed": false,
          "internalType": "address",
          "name": "buyer",
          "type": "address"
        },
        {
          "indexed": false,
          "internalType": "uint256",
          "name": "orderId",
          "type": "uint256"
        },
        {
          "indexed": false,
          "internalType": "uint256",
          "name": "itemId",
          "type": "uint256"
        }
      ],
      "name": "Buy",
      "type": "event"
    },
    {
      "anonymous": false,
      "inputs": [
        {
          "indexed": false,
          "internalType": "string",
          "name": "name",
          "type": "string"
        },
        {
          "indexed": false,
          "internalType": "uint256",
          "name": "cost",
          "type": "uint256"
        },
        {
          "indexed": false,
          "internalType": "uint256",
          "name": "stock",
          "type": "uint256"
        }
      ],
      "name": "List",
      "type": "event"
    },
    {
      "inputs": [
        {
          "internalType": "uint256",
          "name": "_id",
          "type": "uint256"
        }
      ],
      "name": "buy",
      "outputs": [],
      "stateMutability": "payable",
      "type": "function"
    },
    {
      "inputs": [
        {
          "internalType": "uint256",
          "name": "",
          "type": "uint256"
        }
      ],
      "name": "items",
      "outputs": [
        {
          "internalType": "uint256",
          "name": "id",
          "type": "uint256"
        },
        {
          "internalType": "string",
          "name": "name",
          "type": "string"
        },
        {
          "internalType": "string",
          "name": "category",
          "type": "string"
        },
        {
          "internalType": "string",
          "name": "image",
          "type": "string"
        },
        {
          "internalType": "uint256",
          "name": "cost",
          "type": "uint256"
        },
        {
          "internalType": "uint256",
          "name": "rating",
          "type": "uint256"
        },
        {
          "internalType": "uint256",
          "name": "stock",
          "type": "uint256"
        }
      ],
      "stateMutability": "view",
      "type": "function"
    },
    {
      "inputs": [
        {
          "internalType": "uint256",
          "name": "_id",
          "type": "uint256"
        },
        {
          "internalType": "string",
          "name": "_name",
          "type": "string"
        },
        {
          "internalType": "string",
          "name": "_category",
          "type": "string"
        },
        {
          "internalType": "string",
          "name": "_image",
          "type": "string"
        },
        {
          "internalType": "uint256",
          "name": "_cost",
          "type": "uint256"
        },
        {
          "internalType": "uint256",
          "name": "_rating",
          "type": "uint256"
        },
        {
          "internalType": "uint256",
          "name": "_stock",
          "type": "uint256"
        }
      ],
      "name": "list",
      "outputs": [],
      "stateMutability": "nonpayable",
      "type": "function"
    },
    {
      "inputs": [],
      "name": "name",
      "outputs": [
        {
          "internalType": "string",
          "name": "",
          "type": "string"
        }
      ],
      "stateMutability": "view",
      "type": "function"
    },
    {
      "inputs": [
        {
          "internalType": "address",
          "name": "",
          "type": "address"
        }
      ],
      "name": "orderCount",
      "outputs": [
        {
          "internalType": "uint256",
          "name": "",
          "type": "uint256"
        }
      ],
      "stateMutability": "view",
      "type": "function"
    },
    {
      "inputs": [
        {
          "internalType": "address",
          "name": "",
          "type": "address"
        },
        {
          "internalType": "uint256",
          "name": "",
          "type": "uint256"
        }
      ],
      "name": "orders",
      "outputs": [
        {
          "internalType": "uint256",
          "name": "timestamp",
          "type": "uint256"
        },
        {
          "components": [
            {
              "internalType": "uint256",
              "name": "id",
              "type": "uint256"
            },
            {
              "internalType": "string",
              "name": "name",
              "type": "string"
            },
            {
              "internalType": "string",
              "name": "category",
              "type": "string"
            },
            {
              "internalType": "string",
              "name": "image",
              "type": "string"
            },
            {
              "internalType": "uint256",
              "name": "cost",
              "type": "uint256"
            },
            {
              "internalType": "uint256",
              "name": "rating",
              "type": "uint256"
            },
            {
              "internalType": "uint256",
              "name": "stock",
              "type": "uint256"
            }
          ],
          "internalType": "struct Dappcom.Item",
          "name": "item",
          "type": "tuple"
        }
      ],
      "stateMutability": "view",
      "type": "function"
    },
    {
      "inputs": [],
      "name": "owner",
      "outputs": [
        {
          "internalType": "address",
          "name": "",
          "type": "address"
        }
      ],
      "stateMutability": "view",
      "type": "function"
    }
  ],
  "bytecode": "0x60a06040526040518060400160405280600781526020017f44617070636f6d00000000000000000000000000000000000000000000000000815250600090816200004a91906200030d565b503480156200005857600080fd5b503373ffffffffffffffffffffffffffffffffffffffff1660808173ffffffffffffffffffffffffffffffffffffffff1681525050620003f4565b600081519050919050565b7f4e487b7100000000000000000000000000000000000000000000000000000000600052604160045260246000fd5b7f4e487b7100000000000000000000000000000000000000000000000000000000600052602260045260246000fd5b600060028204905060018216806200011557607f821691505b6020821081036200012b576200012a620000cd565b5b50919050565b60008190508160005260206000209050919050565b60006020601f8301049050919050565b600082821b905092915050565b600060088302620001957fffffffffffffffffffffffffffffffffffffffffffffffffffffffffffffffff8262000156565b620001a1868362000156565b95508019841693508086168417925050509392505050565b6000819050919050565b6000819050919050565b6000620001ee620001e8620001e284620001b9565b620001c3565b620001b9565b9050919050565b6000819050919050565b6200020a83620001cd565b620002226200021982620001f5565b84845462000163565b825550505050565b600090565b620002396200022a565b62000246818484620001ff565b505050565b5b818110156200026e57620002626000826200022f565b6001810190506200024c565b5050565b601f821115620002bd57620002878162000131565b620002928462000146565b81016020851015620002a2578190505b620002ba620002b18562000146565b8301826200024b565b50505b505050565b600082821c905092915050565b6000620002e260001984600802620002c2565b1980831691505092915050565b6000620002fd8383620002cf565b9150826002028217905092915050565b620003188262000093565b67ffffffffffffffff8111156200033457620003336200009e565b5b620003408254620000fc565b6200034d82828562000272565b600060209050601f83116001811462000385576000841562000370578287015190505b6200037c8582620002ef565b865550620003ec565b601f198416620003958662000131565b60005b82811015620003bf5784890151825560018201915060208501945060208101905062000398565b86831015620003df5784890151620003db601f891682620002cf565b8355505b6001600288020188555050505b505050505050565b608051611678620004176000396000818161048f0152610adb01526116786000f3fe6080604052600436106100705760003560e01c80638da5cb5b1161004e5780638da5cb5b1461011b578063bfb231d214610146578063d96a094a14610189578063eea8a7e8146101a557610070565b806306fdde0314610075578063713d856b146100a0578063793b8c6d146100dd575b600080fd5b34801561008157600080fd5b5061008a6101ce565b6040516100979190610cbe565b60405180910390f35b3480156100ac57600080fd5b506100c760048036038101906100c29190610d52565b61025c565b6040516100d49190610d98565b60405180910390f35b3480156100e957600080fd5b5061010460048036038101906100ff9190610ddf565b610274565b604051610112929190610f22565b60405180910390f35b34801561012757600080fd5b5061013061048d565b60405161013d9190610f61565b60405180910390f35b34801561015257600080fd5b5061016d60048036038101906101689190610f7c565b6104b1565b6040516101809796959493929190610fa9565b60405180910390f35b6101a3600480360381019061019e9190610f7c565b61068b565b005b3480156101b157600080fd5b506101cc60048036038101906101c79190611162565b610ad9565b005b600080546101db90611287565b80601f016020809104026020016040519081016040528092919081815260200182805461020790611287565b80156102545780601f1061022957610100808354040283529160200191610254565b820191906000526020600020905b81548152906001019060200180831161023757829003601f168201915b505050505081565b60026020528060005260406000206000915090505481565b600360205281600052604060002060205280600052604060002060009150915050806000015490806001016040518060e0016040529081600082015481526020016001820180546102c490611287565b80601f01602080910402602001604051908101604052809291908181526020018280546102f090611287565b801561033d5780601f106103125761010080835404028352916020019161033d565b820191906000526020600020905b81548152906001019060200180831161032057829003601f168201915b5050505050815260200160028201805461035690611287565b80601f016020809104026020016040519081016040528092919081815260200182805461038290611287565b80156103cf5780601f106103a4576101008083540402835291602001916103cf565b820191906000526020600020905b8154815290600101906020018083116103b257829003601f168201915b505050505081526020016003820180546103e890611287565b80601f016020809104026020016040519081016040528092919081815260200182805461041490611287565b80156104615780601f1061043657610100808354040283529160200191610461565b820191906000526020600020905b81548152906001019060200180831161044457829003601f168201915b505050505081526020016004820154815260200160058201548152602001600682015481525050905082565b7f000000000000000000000000000000000000000000000000000000000000000081565b60016020528060005260406000206000915090508060000154908060010180546104da90611287565b80601f016020809104026020016040519081016040528092919081815260200182805461050690611287565b80156105535780601f1061052857610100808354040283529160200191610553565b820191906000526020600020905b81548152906001019060200180831161053657829003601f168201915b50505050509080600201805461056890611287565b80601f016020809104026020016040519081016040528092919081815260200182805461059490611287565b80156105e15780601f106105b6576101008083540402835291602001916105e1565b820191906000526020600020905b8154815290600101906020018083116105c457829003601f168201915b5050505050908060030180546105f690611287565b80601f016020809104026020016040519081016040528092919081815260200182805461062290611287565b801561066f5780601f106106445761010080835404028352916020019161066f565b820191906000526020600020905b81548152906001019060200180831161065257829003601f168201915b5050505050908060040154908060050154908060060154905087565b6000600160008381526020019081526020016000206040518060e0016040529081600082015481526020016001820180546106c590611287565b80601f01602080910402602001604051908101604052809291908181526020018280546106f190611287565b801561073e5780601f106107135761010080835404028352916020019161073e565b820191906000526020600020905b81548152906001019060200180831161072157829003601f168201915b5050505050815260200160028201805461075790611287565b80601f016020809104026020016040519081016040528092919081815260200182805461078390611287565b80156107d05780601f106107a5576101008083540402835291602001916107d0565b820191906000526020600020905b8154815290600101906020018083116107b357829003601f168201915b505050505081526020016003820180546107e990611287565b80601f016020809104026020016040519081016040528092919081815260200182805461081590611287565b80156108625780601f1061083757610100808354040283529160200191610862565b820191906000526020600020905b81548152906001019060200180831161084557829003601f168201915b5050505050815260200160048201548152602001600582015481526020016006820154815250509050806080015134101561089c57600080fd5b600060405180604001604052804281526020018381525090506001600260003373ffffffffffffffffffffffffffffffffffffffff1673ffffffffffffffffffffffffffffffffffffffff168152602001908152602001600020600082825461090591906112e7565b9250508190555080600360003373ffffffffffffffffffffffffffffffffffffffff1673ffffffffffffffffffffffffffffffffffffffff1681526020019081526020016000206000600260003373ffffffffffffffffffffffffffffffffffffffff1673ffffffffffffffffffffffffffffffffffffffff168152602001908152602001600020548152602001908152602001600020600082015181600001556020820151816001016000820151816000015560208201518160010190816109ce91906114c7565b5060408201518160020190816109e491906114c7565b5060608201518160030190816109fa91906114c7565b506080820151816004015560a0820151816005015560c082015181600601555050905050600180600085815260200190815260200160002060060154610a409190611599565b60016000858152602001908152602001600020600601819055507f1cbc5ab135991bd2b6a4b034a04aa2aa086dac1371cb9b16b8b5e2ed6b036bed33600260003373ffffffffffffffffffffffffffffffffffffffff1673ffffffffffffffffffffffffffffffffffffffff1681526020019081526020016000205485604051610acc939291906115cd565b60405180910390a1505050565b7f000000000000000000000000000000000000000000000000000000000000000073ffffffffffffffffffffffffffffffffffffffff163373ffffffffffffffffffffffffffffffffffffffff1614610b3157600080fd5b60006040518060e0016040528089815260200188815260200187815260200186815260200185815260200184815260200183815250905080600160008a8152602001908152602001600020600082015181600001556020820151816001019081610b9b91906114c7565b506040820151816002019081610bb191906114c7565b506060820151816003019081610bc791906114c7565b506080820151816004015560a0820151816005015560c082015181600601559050507ffdbe2a012c10ec01592653978eaa09b5ca60b143a0e617505b2ebcbd911ec5b8878584604051610c1c93929190611604565b60405180910390a15050505050505050565b600081519050919050565b600082825260208201905092915050565b60005b83811015610c68578082015181840152602081019050610c4d565b60008484015250505050565b6000601f19601f8301169050919050565b6000610c9082610c2e565b610c9a8185610c39565b9350610caa818560208601610c4a565b610cb381610c74565b840191505092915050565b60006020820190508181036000830152610cd88184610c85565b905092915050565b6000604051905090565b600080fd5b600080fd5b600073ffffffffffffffffffffffffffffffffffffffff82169050919050565b6000610d1f82610cf4565b9050919050565b610d2f81610d14565b8114610d3a57600080fd5b50565b600081359050610d4c81610d26565b92915050565b600060208284031215610d6857610d67610cea565b5b6000610d7684828501610d3d565b91505092915050565b6000819050919050565b610d9281610d7f565b82525050565b6000602082019050610dad6000830184610d89565b92915050565b610dbc81610d7f565b8114610dc757600080fd5b50565b600081359050610dd981610db3565b92915050565b60008060408385031215610df657610df5610cea565b5b6000610e0485828601610d3d565b9250506020610e1585828601610dca565b9150509250929050565b610e2881610d7f565b82525050565b600082825260208201905092915050565b6000610e4a82610c2e565b610e548185610e2e565b9350610e64818560208601610c4a565b610e6d81610c74565b840191505092915050565b600060e083016000830151610e906000860182610e1f565b5060208301518482036020860152610ea88282610e3f565b91505060408301518482036040860152610ec28282610e3f565b91505060608301518482036060860152610edc8282610e3f565b9150506080830151610ef16080860182610e1f565b5060a0830151610f0460a0860182610e1f565b5060c0830151610f1760c0860182610e1f565b508091505092915050565b6000604082019050610f376000830185610d89565b8181036020830152610f498184610e78565b90509392505050565b610f5b81610d14565b82525050565b6000602082019050610f766000830184610f52565b92915050565b600060208284031215610f9257610f91610cea565b5b6000610fa084828501610dca565b91505092915050565b600060e082019050610fbe600083018a610d89565b8181036020830152610fd08189610c85565b90508181036040830152610fe48188610c85565b90508181036060830152610ff88187610c85565b90506110076080830186610d89565b61101460a0830185610d89565b61102160c0830184610d89565b98975050505050505050565b600080fd5b600080fd5b7f4e487b7100000000000000000000000000000000000000000000000000000000600052604160045260246000fd5b61106f82610c74565b810181811067ffffffffffffffff8211171561108e5761108d611037565b5b80604052505050565b60006110a1610ce0565b90506110ad8282611066565b919050565b600067ffffffffffffffff8211156110cd576110cc611037565b5b6110d682610c74565b9050602081019050919050565b82818337600083830152505050565b6000611105611100846110b2565b611097565b90508281526020810184848401111561112157611120611032565b5b61112c8482856110e3565b509392505050565b600082601f8301126111495761114861102d565b5b81356111598482602086016110f2565b91505092915050565b600080600080600080600060e0888a03121561118157611180610cea565b5b600061118f8a828b01610dca565b975050602088013567ffffffffffffffff8111156111b0576111af610cef565b5b6111bc8a828b01611134565b965050604088013567ffffffffffffffff8111156111dd576111dc610cef565b5b6111e98a828b01611134565b955050606088013567ffffffffffffffff81111561120a57611209610cef565b5b6112168a828b01611134565b94505060806112278a828b01610dca565b93505060a06112388a828b01610dca565b92505060c06112498a828b01610dca565b91505092959891949750929550565b7f4e487b7100000000000000000000000000000000000000000000000000000000600052602260045260246000fd5b6000600282049050600182168061129f57607f821691505b6020821081036112b2576112b1611258565b5b50919050565b7f4e487b7100000000000000000000000000000000000000000000000000000000600052601160045260246000fd5b60006112f282610d7f565b91506112fd83610d7f565b9250828201905080821115611315576113146112b8565b5b92915050565b60008190508160005260206000209050919050565b60006020601f8301049050919050565b600082821b905092915050565b60006008830261137d7fffffffffffffffffffffffffffffffffffffffffffffffffffffffffffffffff82611340565b6113878683611340565b95508019841693508086168417925050509392505050565b6000819050919050565b60006113c46113bf6113ba84610d7f565b61139f565b610d7f565b9050919050565b6000819050919050565b6113de836113a9565b6113f26113ea826113cb565b84845461134d565b825550505050565b600090565b6114076113fa565b6114128184846113d5565b505050565b5b818110156114365761142b6000826113ff565b600181019050611418565b5050565b601f82111561147b5761144c8161131b565b61145584611330565b81016020851015611464578190505b61147861147085611330565b830182611417565b50505b505050565b600082821c905092915050565b600061149e60001984600802611480565b1980831691505092915050565b60006114b7838361148d565b9150826002028217905092915050565b6114d082610c2e565b67ffffffffffffffff8111156114e9576114e8611037565b5b6114f38254611287565b6114fe82828561143a565b600060209050601f831160018114611531576000841561151f578287015190505b61152985826114ab565b865550611591565b601f19841661153f8661131b565b60005b8281101561156757848901518255600182019150602085019450602081019050611542565b868310156115845784890151611580601f89168261148d565b8355505b6001600288020188555050505b505050505050565b60006115a482610d7f565b91506115af83610d7f565b92508282039050818111156115c7576115c66112b8565b5b92915050565b60006060820190506115e26000830186610f52565b6115ef6020830185610d89565b6115fc6040830184610d89565b949350505050565b6000606082019050818103600083015261161e8186610c85565b905061162d6020830185610d89565b61163a6040830184610d89565b94935050505056fea2646970667358221220ab49a54ae697bab888913b12d60be7455a61ea59eb55859e427a507d5885e06b64736f6c63430008180033",
  "linkReferences": {},
  "deployedLinkReferences": {}
}