{
  "_format": "hh-sol-artifact-1",
  "contractName": "Dappcom",
  "sourceName": "contracts/Dappcom.sol",
  "abi": [
    {
      "inputs": [],
      "stateMutability": "nonpayable",
      "type": "constructor"
    },
    {
      "inputs": [],
      "name": "OnlyOwnerAllowed",
      "type": "error"
    },
    {
      "anonymous": false,
      "inputs": [
        {
          "indexed": false,
          "internalType": "address",
          "name": "buyer",
          "type": "address"
        },
        {
          "indexed": false,
          "internalType": "uint256",
          "name": "orderId",
          "type": "uint256"
        },
        {
          "indexed": false,
          "internalType": "uint256",
          "name": "itemId",
          "type": "uint256"
        }
      ],
      "name": "Buy",
      "type": "event"
    },
    {
      "anonymous": false,
      "inputs": [
        {
          "indexed": false,
          "internalType": "string",
          "name": "name",
          "type": "string"
        },
        {
          "indexed": false,
          "internalType": "uint256",
          "name": "cost",
          "type": "uint256"
        },
        {
          "indexed": false,
          "internalType": "uint256",
          "name": "stock",
          "type": "uint256"
        }
      ],
      "name": "List",
      "type": "event"
    },
    {
      "inputs": [
        {
          "internalType": "uint256",
          "name": "_id",
          "type": "uint256"
        }
      ],
      "name": "buy",
      "outputs": [],
      "stateMutability": "payable",
      "type": "function"
    },
    {
      "inputs": [
        {
          "internalType": "uint256",
          "name": "",
          "type": "uint256"
        }
      ],
      "name": "items",
      "outputs": [
        {
          "internalType": "uint256",
          "name": "id",
          "type": "uint256"
        },
        {
          "internalType": "string",
          "name": "name",
          "type": "string"
        },
        {
          "internalType": "string",
          "name": "category",
          "type": "string"
        },
        {
          "internalType": "string",
          "name": "image",
          "type": "string"
        },
        {
          "internalType": "uint256",
          "name": "cost",
          "type": "uint256"
        },
        {
          "internalType": "uint256",
          "name": "rating",
          "type": "uint256"
        },
        {
          "internalType": "uint256",
          "name": "stock",
          "type": "uint256"
        }
      ],
      "stateMutability": "view",
      "type": "function"
    },
    {
      "inputs": [
        {
          "internalType": "uint256",
          "name": "_id",
          "type": "uint256"
        },
        {
          "internalType": "string",
          "name": "_name",
          "type": "string"
        },
        {
          "internalType": "string",
          "name": "_category",
          "type": "string"
        },
        {
          "internalType": "string",
          "name": "_image",
          "type": "string"
        },
        {
          "internalType": "uint256",
          "name": "_cost",
          "type": "uint256"
        },
        {
          "internalType": "uint256",
          "name": "_rating",
          "type": "uint256"
        },
        {
          "internalType": "uint256",
          "name": "_stock",
          "type": "uint256"
        }
      ],
      "name": "list",
      "outputs": [],
      "stateMutability": "nonpayable",
      "type": "function"
    },
    {
      "inputs": [],
      "name": "name",
      "outputs": [
        {
          "internalType": "string",
          "name": "",
          "type": "string"
        }
      ],
      "stateMutability": "view",
      "type": "function"
    },
    {
      "inputs": [
        {
          "internalType": "address",
          "name": "",
          "type": "address"
        }
      ],
      "name": "orderCount",
      "outputs": [
        {
          "internalType": "uint256",
          "name": "",
          "type": "uint256"
        }
      ],
      "stateMutability": "view",
      "type": "function"
    },
    {
      "inputs": [
        {
          "internalType": "address",
          "name": "",
          "type": "address"
        },
        {
          "internalType": "uint256",
          "name": "",
          "type": "uint256"
        }
      ],
      "name": "orders",
      "outputs": [
        {
          "internalType": "uint256",
          "name": "timestamp",
          "type": "uint256"
        },
        {
          "components": [
            {
              "internalType": "uint256",
              "name": "id",
              "type": "uint256"
            },
            {
              "internalType": "string",
              "name": "name",
              "type": "string"
            },
            {
              "internalType": "string",
              "name": "category",
              "type": "string"
            },
            {
              "internalType": "string",
              "name": "image",
              "type": "string"
            },
            {
              "internalType": "uint256",
              "name": "cost",
              "type": "uint256"
            },
            {
              "internalType": "uint256",
              "name": "rating",
              "type": "uint256"
            },
            {
              "internalType": "uint256",
              "name": "stock",
              "type": "uint256"
            }
          ],
          "internalType": "struct Dappcom.Item",
          "name": "item",
          "type": "tuple"
        }
      ],
      "stateMutability": "view",
      "type": "function"
    },
    {
      "inputs": [],
      "name": "owner",
      "outputs": [
        {
          "internalType": "address",
          "name": "",
          "type": "address"
        }
      ],
      "stateMutability": "view",
      "type": "function"
    },
    {
      "inputs": [],
      "name": "withdraw",
      "outputs": [],
      "stateMutability": "nonpayable",
      "type": "function"
    }
  ],
  "bytecode": "0x60a06040526040518060400160405280600781526020017f44617070636f6d00000000000000000000000000000000000000000000000000815250600090816200004a91906200030d565b503480156200005857600080fd5b503373ffffffffffffffffffffffffffffffffffffffff1660808173ffffffffffffffffffffffffffffffffffffffff1681525050620003f4565b600081519050919050565b7f4e487b7100000000000000000000000000000000000000000000000000000000600052604160045260246000fd5b7f4e487b7100000000000000000000000000000000000000000000000000000000600052602260045260246000fd5b600060028204905060018216806200011557607f821691505b6020821081036200012b576200012a620000cd565b5b50919050565b60008190508160005260206000209050919050565b60006020601f8301049050919050565b600082821b905092915050565b600060088302620001957fffffffffffffffffffffffffffffffffffffffffffffffffffffffffffffffff8262000156565b620001a1868362000156565b95508019841693508086168417925050509392505050565b6000819050919050565b6000819050919050565b6000620001ee620001e8620001e284620001b9565b620001c3565b620001b9565b9050919050565b6000819050919050565b6200020a83620001cd565b620002226200021982620001f5565b84845462000163565b825550505050565b600090565b620002396200022a565b62000246818484620001ff565b505050565b5b818110156200026e57620002626000826200022f565b6001810190506200024c565b5050565b601f821115620002bd57620002878162000131565b620002928462000146565b81016020851015620002a2578190505b620002ba620002b18562000146565b8301826200024b565b50505b505050565b600082821c905092915050565b6000620002e260001984600802620002c2565b1980831691505092915050565b6000620002fd8383620002cf565b9150826002028217905092915050565b620003188262000093565b67ffffffffffffffff8111156200033457620003336200009e565b5b620003408254620000fc565b6200034d82828562000272565b600060209050601f83116001811462000385576000841562000370578287015190505b6200037c8582620002ef565b865550620003ec565b601f198416620003958662000131565b60005b82811015620003bf5784890151825560018201915060208501945060208101905062000398565b86831015620003df5784890151620003db601f891682620002cf565b8355505b6001600288020188555050505b505050505050565b608051611980620004256000396000818161028001528181610307015281816105cf0152610c9801526119806000f3fe60806040526004361061007b5760003560e01c80638da5cb5b1161004e5780638da5cb5b1461013d578063bfb231d214610168578063d96a094a146101ab578063eea8a7e8146101c75761007b565b806306fdde03146100805780633ccfd60b146100ab578063713d856b146100c2578063793b8c6d146100ff575b600080fd5b34801561008c57600080fd5b506100956101f0565b6040516100a29190610ea8565b60405180910390f35b3480156100b757600080fd5b506100c061027e565b005b3480156100ce57600080fd5b506100e960048036038101906100e49190610f3c565b61039c565b6040516100f69190610f82565b60405180910390f35b34801561010b57600080fd5b5061012660048036038101906101219190610fc9565b6103b4565b60405161013492919061110c565b60405180910390f35b34801561014957600080fd5b506101526105cd565b60405161015f919061114b565b60405180910390f35b34801561017457600080fd5b5061018f600480360381019061018a9190611166565b6105f1565b6040516101a29796959493929190611193565b60405180910390f35b6101c560048036038101906101c09190611166565b6107cb565b005b3480156101d357600080fd5b506101ee60048036038101906101e9919061134c565b610c96565b005b600080546101fd90611471565b80601f016020809104026020016040519081016040528092919081815260200182805461022990611471565b80156102765780601f1061024b57610100808354040283529160200191610276565b820191906000526020600020905b81548152906001019060200180831161025957829003601f168201915b505050505081565b7f000000000000000000000000000000000000000000000000000000000000000073ffffffffffffffffffffffffffffffffffffffff163373ffffffffffffffffffffffffffffffffffffffff1614610303576040517f717bf7f800000000000000000000000000000000000000000000000000000000815260040160405180910390fd5b60007f000000000000000000000000000000000000000000000000000000000000000073ffffffffffffffffffffffffffffffffffffffff1647604051610349906114d3565b60006040518083038185875af1925050503d8060008114610386576040519150601f19603f3d011682016040523d82523d6000602084013e61038b565b606091505b505090508061039957600080fd5b50565b60026020528060005260406000206000915090505481565b600360205281600052604060002060205280600052604060002060009150915050806000015490806001016040518060e00160405290816000820154815260200160018201805461040490611471565b80601f016020809104026020016040519081016040528092919081815260200182805461043090611471565b801561047d5780601f106104525761010080835404028352916020019161047d565b820191906000526020600020905b81548152906001019060200180831161046057829003601f168201915b5050505050815260200160028201805461049690611471565b80601f01602080910402602001604051908101604052809291908181526020018280546104c290611471565b801561050f5780601f106104e45761010080835404028352916020019161050f565b820191906000526020600020905b8154815290600101906020018083116104f257829003601f168201915b5050505050815260200160038201805461052890611471565b80601f016020809104026020016040519081016040528092919081815260200182805461055490611471565b80156105a15780601f10610576576101008083540402835291602001916105a1565b820191906000526020600020905b81548152906001019060200180831161058457829003601f168201915b505050505081526020016004820154815260200160058201548152602001600682015481525050905082565b7f000000000000000000000000000000000000000000000000000000000000000081565b600160205280600052604060002060009150905080600001549080600101805461061a90611471565b80601f016020809104026020016040519081016040528092919081815260200182805461064690611471565b80156106935780601f1061066857610100808354040283529160200191610693565b820191906000526020600020905b81548152906001019060200180831161067657829003601f168201915b5050505050908060020180546106a890611471565b80601f01602080910402602001604051908101604052809291908181526020018280546106d490611471565b80156107215780601f106106f657610100808354040283529160200191610721565b820191906000526020600020905b81548152906001019060200180831161070457829003601f168201915b50505050509080600301805461073690611471565b80601f016020809104026020016040519081016040528092919081815260200182805461076290611471565b80156107af5780601f10610784576101008083540402835291602001916107af565b820191906000526020600020905b81548152906001019060200180831161079257829003601f168201915b5050505050908060040154908060050154908060060154905087565b6000600160008381526020019081526020016000206040518060e00160405290816000820154815260200160018201805461080590611471565b80601f016020809104026020016040519081016040528092919081815260200182805461083190611471565b801561087e5780601f106108535761010080835404028352916020019161087e565b820191906000526020600020905b81548152906001019060200180831161086157829003601f168201915b5050505050815260200160028201805461089790611471565b80601f01602080910402602001604051908101604052809291908181526020018280546108c390611471565b80156109105780601f106108e557610100808354040283529160200191610910565b820191906000526020600020905b8154815290600101906020018083116108f357829003601f168201915b5050505050815260200160038201805461092990611471565b80601f016020809104026020016040519081016040528092919081815260200182805461095590611471565b80156109a25780601f10610977576101008083540402835291602001916109a2565b820191906000526020600020905b81548152906001019060200180831161098557829003601f168201915b50505050508152602001600482015481526020016005820154815260200160068201548152505090508060800151341015610a12576040517f08c379a0000000000000000000000000000000000000000000000000000000008152600401610a0990611534565b60405180910390fd5b60008160c0015111610a59576040517f08c379a0000000000000000000000000000000000000000000000000000000008152600401610a50906115a0565b60405180910390fd5b600060405180604001604052804281526020018381525090506001600260003373ffffffffffffffffffffffffffffffffffffffff1673ffffffffffffffffffffffffffffffffffffffff1681526020019081526020016000206000828254610ac291906115ef565b9250508190555080600360003373ffffffffffffffffffffffffffffffffffffffff1673ffffffffffffffffffffffffffffffffffffffff1681526020019081526020016000206000600260003373ffffffffffffffffffffffffffffffffffffffff1673ffffffffffffffffffffffffffffffffffffffff16815260200190815260200160002054815260200190815260200160002060008201518160000155602082015181600101600082015181600001556020820151816001019081610b8b91906117cf565b506040820151816002019081610ba191906117cf565b506060820151816003019081610bb791906117cf565b506080820151816004015560a0820151816005015560c082015181600601555050905050600180600085815260200190815260200160002060060154610bfd91906118a1565b60016000858152602001908152602001600020600601819055507f1cbc5ab135991bd2b6a4b034a04aa2aa086dac1371cb9b16b8b5e2ed6b036bed33600260003373ffffffffffffffffffffffffffffffffffffffff1673ffffffffffffffffffffffffffffffffffffffff1681526020019081526020016000205485604051610c89939291906118d5565b60405180910390a1505050565b7f000000000000000000000000000000000000000000000000000000000000000073ffffffffffffffffffffffffffffffffffffffff163373ffffffffffffffffffffffffffffffffffffffff1614610d1b576040517f717bf7f800000000000000000000000000000000000000000000000000000000815260040160405180910390fd5b60006040518060e0016040528089815260200188815260200187815260200186815260200185815260200184815260200183815250905080600160008a8152602001908152602001600020600082015181600001556020820151816001019081610d8591906117cf565b506040820151816002019081610d9b91906117cf565b506060820151816003019081610db191906117cf565b506080820151816004015560a0820151816005015560c082015181600601559050507ffdbe2a012c10ec01592653978eaa09b5ca60b143a0e617505b2ebcbd911ec5b8878584604051610e069392919061190c565b60405180910390a15050505050505050565b600081519050919050565b600082825260208201905092915050565b60005b83811015610e52578082015181840152602081019050610e37565b60008484015250505050565b6000601f19601f8301169050919050565b6000610e7a82610e18565b610e848185610e23565b9350610e94818560208601610e34565b610e9d81610e5e565b840191505092915050565b60006020820190508181036000830152610ec28184610e6f565b905092915050565b6000604051905090565b600080fd5b600080fd5b600073ffffffffffffffffffffffffffffffffffffffff82169050919050565b6000610f0982610ede565b9050919050565b610f1981610efe565b8114610f2457600080fd5b50565b600081359050610f3681610f10565b92915050565b600060208284031215610f5257610f51610ed4565b5b6000610f6084828501610f27565b91505092915050565b6000819050919050565b610f7c81610f69565b82525050565b6000602082019050610f976000830184610f73565b92915050565b610fa681610f69565b8114610fb157600080fd5b50565b600081359050610fc381610f9d565b92915050565b60008060408385031215610fe057610fdf610ed4565b5b6000610fee85828601610f27565b9250506020610fff85828601610fb4565b9150509250929050565b61101281610f69565b82525050565b600082825260208201905092915050565b600061103482610e18565b61103e8185611018565b935061104e818560208601610e34565b61105781610e5e565b840191505092915050565b600060e08301600083015161107a6000860182611009565b50602083015184820360208601526110928282611029565b915050604083015184820360408601526110ac8282611029565b915050606083015184820360608601526110c68282611029565b91505060808301516110db6080860182611009565b5060a08301516110ee60a0860182611009565b5060c083015161110160c0860182611009565b508091505092915050565b60006040820190506111216000830185610f73565b81810360208301526111338184611062565b90509392505050565b61114581610efe565b82525050565b6000602082019050611160600083018461113c565b92915050565b60006020828403121561117c5761117b610ed4565b5b600061118a84828501610fb4565b91505092915050565b600060e0820190506111a8600083018a610f73565b81810360208301526111ba8189610e6f565b905081810360408301526111ce8188610e6f565b905081810360608301526111e28187610e6f565b90506111f16080830186610f73565b6111fe60a0830185610f73565b61120b60c0830184610f73565b98975050505050505050565b600080fd5b600080fd5b7f4e487b7100000000000000000000000000000000000000000000000000000000600052604160045260246000fd5b61125982610e5e565b810181811067ffffffffffffffff8211171561127857611277611221565b5b80604052505050565b600061128b610eca565b90506112978282611250565b919050565b600067ffffffffffffffff8211156112b7576112b6611221565b5b6112c082610e5e565b9050602081019050919050565b82818337600083830152505050565b60006112ef6112ea8461129c565b611281565b90508281526020810184848401111561130b5761130a61121c565b5b6113168482856112cd565b509392505050565b600082601f83011261133357611332611217565b5b81356113438482602086016112dc565b91505092915050565b600080600080600080600060e0888a03121561136b5761136a610ed4565b5b60006113798a828b01610fb4565b975050602088013567ffffffffffffffff81111561139a57611399610ed9565b5b6113a68a828b0161131e565b965050604088013567ffffffffffffffff8111156113c7576113c6610ed9565b5b6113d38a828b0161131e565b955050606088013567ffffffffffffffff8111156113f4576113f3610ed9565b5b6114008a828b0161131e565b94505060806114118a828b01610fb4565b93505060a06114228a828b01610fb4565b92505060c06114338a828b01610fb4565b91505092959891949750929550565b7f4e487b7100000000000000000000000000000000000000000000000000000000600052602260045260246000fd5b6000600282049050600182168061148957607f821691505b60208210810361149c5761149b611442565b5b50919050565b600081905092915050565b50565b60006114bd6000836114a2565b91506114c8826114ad565b600082019050919050565b60006114de826114b0565b9150819050919050565b7f53656e64206d6f27206574680000000000000000000000000000000000000000600082015250565b600061151e600c83610e23565b9150611529826114e8565b602082019050919050565b6000602082019050818103600083015261154d81611511565b9050919050565b7f4974656d206973206f7574206f662073746f636b000000000000000000000000600082015250565b600061158a601483610e23565b915061159582611554565b602082019050919050565b600060208201905081810360008301526115b98161157d565b9050919050565b7f4e487b7100000000000000000000000000000000000000000000000000000000600052601160045260246000fd5b60006115fa82610f69565b915061160583610f69565b925082820190508082111561161d5761161c6115c0565b5b92915050565b60008190508160005260206000209050919050565b60006020601f8301049050919050565b600082821b905092915050565b6000600883026116857fffffffffffffffffffffffffffffffffffffffffffffffffffffffffffffffff82611648565b61168f8683611648565b95508019841693508086168417925050509392505050565b6000819050919050565b60006116cc6116c76116c284610f69565b6116a7565b610f69565b9050919050565b6000819050919050565b6116e6836116b1565b6116fa6116f2826116d3565b848454611655565b825550505050565b600090565b61170f611702565b61171a8184846116dd565b505050565b5b8181101561173e57611733600082611707565b600181019050611720565b5050565b601f8211156117835761175481611623565b61175d84611638565b8101602085101561176c578190505b61178061177885611638565b83018261171f565b50505b505050565b600082821c905092915050565b60006117a660001984600802611788565b1980831691505092915050565b60006117bf8383611795565b9150826002028217905092915050565b6117d882610e18565b67ffffffffffffffff8111156117f1576117f0611221565b5b6117fb8254611471565b611806828285611742565b600060209050601f8311600181146118395760008415611827578287015190505b61183185826117b3565b865550611899565b601f19841661184786611623565b60005b8281101561186f5784890151825560018201915060208501945060208101905061184a565b8683101561188c5784890151611888601f891682611795565b8355505b6001600288020188555050505b505050505050565b60006118ac82610f69565b91506118b783610f69565b92508282039050818111156118cf576118ce6115c0565b5b92915050565b60006060820190506118ea600083018661113c565b6118f76020830185610f73565b6119046040830184610f73565b949350505050565b600060608201905081810360008301526119268186610e6f565b90506119356020830185610f73565b6119426040830184610f73565b94935050505056fea2646970667358221220ff83090d0a32a9c696230c6fce70c4eb8a7e5624519620a81cdc07aa4855361a64736f6c63430008180033",
  "linkReferences": {},
  "deployedLinkReferences": {}
}