{
  "_format": "hh-sol-artifact-1",
  "contractName": "Dappcom",
  "sourceName": "contracts/Dappcom.sol",
  "abi": [
    {
      "inputs": [],
      "stateMutability": "nonpayable",
      "type": "constructor"
    },
    {
      "anonymous": false,
      "inputs": [
        {
          "indexed": false,
          "internalType": "string",
          "name": "name",
          "type": "string"
        },
        {
          "indexed": false,
          "internalType": "uint256",
          "name": "cost",
          "type": "uint256"
        },
        {
          "indexed": false,
          "internalType": "uint256",
          "name": "stock",
          "type": "uint256"
        }
      ],
      "name": "List",
      "type": "event"
    },
    {
      "inputs": [
        {
          "internalType": "uint256",
          "name": "",
          "type": "uint256"
        }
      ],
      "name": "items",
      "outputs": [
        {
          "internalType": "uint256",
          "name": "id",
          "type": "uint256"
        },
        {
          "internalType": "string",
          "name": "name",
          "type": "string"
        },
        {
          "internalType": "string",
          "name": "category",
          "type": "string"
        },
        {
          "internalType": "string",
          "name": "image",
          "type": "string"
        },
        {
          "internalType": "uint256",
          "name": "cost",
          "type": "uint256"
        },
        {
          "internalType": "uint256",
          "name": "rating",
          "type": "uint256"
        },
        {
          "internalType": "uint256",
          "name": "stock",
          "type": "uint256"
        }
      ],
      "stateMutability": "view",
      "type": "function"
    },
    {
      "inputs": [
        {
          "internalType": "uint256",
          "name": "_id",
          "type": "uint256"
        },
        {
          "internalType": "string",
          "name": "_name",
          "type": "string"
        },
        {
          "internalType": "string",
          "name": "_category",
          "type": "string"
        },
        {
          "internalType": "string",
          "name": "_image",
          "type": "string"
        },
        {
          "internalType": "uint256",
          "name": "_cost",
          "type": "uint256"
        },
        {
          "internalType": "uint256",
          "name": "_rating",
          "type": "uint256"
        },
        {
          "internalType": "uint256",
          "name": "_stock",
          "type": "uint256"
        }
      ],
      "name": "list",
      "outputs": [],
      "stateMutability": "nonpayable",
      "type": "function"
    },
    {
      "inputs": [],
      "name": "name",
      "outputs": [
        {
          "internalType": "string",
          "name": "",
          "type": "string"
        }
      ],
      "stateMutability": "view",
      "type": "function"
    },
    {
      "inputs": [],
      "name": "owner",
      "outputs": [
        {
          "internalType": "address",
          "name": "",
          "type": "address"
        }
      ],
      "stateMutability": "view",
      "type": "function"
    }
  ],
  "bytecode": "0x60a06040526040518060400160405280600781526020017f44617070636f6d00000000000000000000000000000000000000000000000000815250600090816200004a91906200030d565b503480156200005857600080fd5b503373ffffffffffffffffffffffffffffffffffffffff1660808173ffffffffffffffffffffffffffffffffffffffff1681525050620003f4565b600081519050919050565b7f4e487b7100000000000000000000000000000000000000000000000000000000600052604160045260246000fd5b7f4e487b7100000000000000000000000000000000000000000000000000000000600052602260045260246000fd5b600060028204905060018216806200011557607f821691505b6020821081036200012b576200012a620000cd565b5b50919050565b60008190508160005260206000209050919050565b60006020601f8301049050919050565b600082821b905092915050565b600060088302620001957fffffffffffffffffffffffffffffffffffffffffffffffffffffffffffffffff8262000156565b620001a1868362000156565b95508019841693508086168417925050509392505050565b6000819050919050565b6000819050919050565b6000620001ee620001e8620001e284620001b9565b620001c3565b620001b9565b9050919050565b6000819050919050565b6200020a83620001cd565b620002226200021982620001f5565b84845462000163565b825550505050565b600090565b620002396200022a565b62000246818484620001ff565b505050565b5b818110156200026e57620002626000826200022f565b6001810190506200024c565b5050565b601f821115620002bd57620002878162000131565b620002928462000146565b81016020851015620002a2578190505b620002ba620002b18562000146565b8301826200024b565b50505b505050565b600082821c905092915050565b6000620002e260001984600802620002c2565b1980831691505092915050565b6000620002fd8383620002cf565b9150826002028217905092915050565b620003188262000093565b67ffffffffffffffff8111156200033457620003336200009e565b5b620003408254620000fc565b6200034d82828562000272565b600060209050601f83116001811462000385576000841562000370578287015190505b6200037c8582620002ef565b865550620003ec565b601f198416620003958662000131565b60005b82811015620003bf5784890151825560018201915060208501945060208101905062000398565b86831015620003df5784890151620003db601f891682620002cf565b8355505b6001600288020188555050505b505050505050565b608051610c55620004176000396000818161016f015261036d0152610c556000f3fe608060405234801561001057600080fd5b506004361061004c5760003560e01c806306fdde03146100515780638da5cb5b1461006f578063bfb231d21461008d578063eea8a7e8146100c3575b600080fd5b6100596100df565b6040516100669190610550565b60405180910390f35b61007761016d565b60405161008491906105b3565b60405180910390f35b6100a760048036038101906100a29190610618565b610191565b6040516100ba9796959493929190610654565b60405180910390f35b6100dd60048036038101906100d8919061080d565b61036b565b005b600080546100ec90610932565b80601f016020809104026020016040519081016040528092919081815260200182805461011890610932565b80156101655780601f1061013a57610100808354040283529160200191610165565b820191906000526020600020905b81548152906001019060200180831161014857829003601f168201915b505050505081565b7f000000000000000000000000000000000000000000000000000000000000000081565b60016020528060005260406000206000915090508060000154908060010180546101ba90610932565b80601f01602080910402602001604051908101604052809291908181526020018280546101e690610932565b80156102335780601f1061020857610100808354040283529160200191610233565b820191906000526020600020905b81548152906001019060200180831161021657829003601f168201915b50505050509080600201805461024890610932565b80601f016020809104026020016040519081016040528092919081815260200182805461027490610932565b80156102c15780601f10610296576101008083540402835291602001916102c1565b820191906000526020600020905b8154815290600101906020018083116102a457829003601f168201915b5050505050908060030180546102d690610932565b80601f016020809104026020016040519081016040528092919081815260200182805461030290610932565b801561034f5780601f106103245761010080835404028352916020019161034f565b820191906000526020600020905b81548152906001019060200180831161033257829003601f168201915b5050505050908060040154908060050154908060060154905087565b7f000000000000000000000000000000000000000000000000000000000000000073ffffffffffffffffffffffffffffffffffffffff163373ffffffffffffffffffffffffffffffffffffffff16146103c357600080fd5b60006040518060e0016040528089815260200188815260200187815260200186815260200185815260200184815260200183815250905080600160008a815260200190815260200160002060008201518160000155602082015181600101908161042d9190610b0f565b5060408201518160020190816104439190610b0f565b5060608201518160030190816104599190610b0f565b506080820151816004015560a0820151816005015560c082015181600601559050507ffdbe2a012c10ec01592653978eaa09b5ca60b143a0e617505b2ebcbd911ec5b88785846040516104ae93929190610be1565b60405180910390a15050505050505050565b600081519050919050565b600082825260208201905092915050565b60005b838110156104fa5780820151818401526020810190506104df565b60008484015250505050565b6000601f19601f8301169050919050565b6000610522826104c0565b61052c81856104cb565b935061053c8185602086016104dc565b61054581610506565b840191505092915050565b6000602082019050818103600083015261056a8184610517565b905092915050565b600073ffffffffffffffffffffffffffffffffffffffff82169050919050565b600061059d82610572565b9050919050565b6105ad81610592565b82525050565b60006020820190506105c860008301846105a4565b92915050565b6000604051905090565b600080fd5b600080fd5b6000819050919050565b6105f5816105e2565b811461060057600080fd5b50565b600081359050610612816105ec565b92915050565b60006020828403121561062e5761062d6105d8565b5b600061063c84828501610603565b91505092915050565b61064e816105e2565b82525050565b600060e082019050610669600083018a610645565b818103602083015261067b8189610517565b9050818103604083015261068f8188610517565b905081810360608301526106a38187610517565b90506106b26080830186610645565b6106bf60a0830185610645565b6106cc60c0830184610645565b98975050505050505050565b600080fd5b600080fd5b7f4e487b7100000000000000000000000000000000000000000000000000000000600052604160045260246000fd5b61071a82610506565b810181811067ffffffffffffffff82111715610739576107386106e2565b5b80604052505050565b600061074c6105ce565b90506107588282610711565b919050565b600067ffffffffffffffff821115610778576107776106e2565b5b61078182610506565b9050602081019050919050565b82818337600083830152505050565b60006107b06107ab8461075d565b610742565b9050828152602081018484840111156107cc576107cb6106dd565b5b6107d784828561078e565b509392505050565b600082601f8301126107f4576107f36106d8565b5b813561080484826020860161079d565b91505092915050565b600080600080600080600060e0888a03121561082c5761082b6105d8565b5b600061083a8a828b01610603565b975050602088013567ffffffffffffffff81111561085b5761085a6105dd565b5b6108678a828b016107df565b965050604088013567ffffffffffffffff811115610888576108876105dd565b5b6108948a828b016107df565b955050606088013567ffffffffffffffff8111156108b5576108b46105dd565b5b6108c18a828b016107df565b94505060806108d28a828b01610603565b93505060a06108e38a828b01610603565b92505060c06108f48a828b01610603565b91505092959891949750929550565b7f4e487b7100000000000000000000000000000000000000000000000000000000600052602260045260246000fd5b6000600282049050600182168061094a57607f821691505b60208210810361095d5761095c610903565b5b50919050565b60008190508160005260206000209050919050565b60006020601f8301049050919050565b600082821b905092915050565b6000600883026109c57fffffffffffffffffffffffffffffffffffffffffffffffffffffffffffffffff82610988565b6109cf8683610988565b95508019841693508086168417925050509392505050565b6000819050919050565b6000610a0c610a07610a02846105e2565b6109e7565b6105e2565b9050919050565b6000819050919050565b610a26836109f1565b610a3a610a3282610a13565b848454610995565b825550505050565b600090565b610a4f610a42565b610a5a818484610a1d565b505050565b5b81811015610a7e57610a73600082610a47565b600181019050610a60565b5050565b601f821115610ac357610a9481610963565b610a9d84610978565b81016020851015610aac578190505b610ac0610ab885610978565b830182610a5f565b50505b505050565b600082821c905092915050565b6000610ae660001984600802610ac8565b1980831691505092915050565b6000610aff8383610ad5565b9150826002028217905092915050565b610b18826104c0565b67ffffffffffffffff811115610b3157610b306106e2565b5b610b3b8254610932565b610b46828285610a82565b600060209050601f831160018114610b795760008415610b67578287015190505b610b718582610af3565b865550610bd9565b601f198416610b8786610963565b60005b82811015610baf57848901518255600182019150602085019450602081019050610b8a565b86831015610bcc5784890151610bc8601f891682610ad5565b8355505b6001600288020188555050505b505050505050565b60006060820190508181036000830152610bfb8186610517565b9050610c0a6020830185610645565b610c176040830184610645565b94935050505056fea2646970667358221220dc46de4d0857880acc415c7197cd1b40aea09a3ce08c89791cd217e9bcd4b2fa64736f6c63430008180033",
  "linkReferences": {},
  "deployedLinkReferences": {}
}